:1000000012C021C020C01FC01EC01DC01CC01BC00C
:100010001AC01AC018C017C016C015C014C013C02B
:1000200012C011C010C011241FBECFE5D4E0DEBF46
:10003000CDBF20E0A0E6B0E001C01D92A436B2071B
:10004000E1F72CD03CC0DCCF1F920F920FB60F927D
:1000500011248F939F938091620090916300019689
:10006000909363008093620080916200909163009E
:100070004F976CF0109263001092620080916000C4
:1000800090916100019690936100809360009F9130
:100090008F910F900FBE0F901F90189581E087BB36
:1000A00089BF85E083BF789421E0809160009091C2
:1000B000610080FF02C028BBF8CF18BAF6CFF894D1
:0200C000FFCF70
:00000001FF
