:1000000012C021C020C01FC01EC01DC01DC01BC00B
:100010001AC019C018C017C016C015C014C013C02C
:1000200012C011C010C011241FBECFE5D4E0DEBF46
:10003000CDBF20E0A0E6B0E001C01D92A236B2071D
:10004000E1F724D02FC0DCCF1F920F920FB60F9292
:1000500011248F939F938091600090916100892B70
:1000600039F081E088BB109261001092600007C0F7
:1000700018BA81E090E090936100809360009F91B6
:100080008F910F900FBE0F901F90189580E189BF40
:100090008BE08EBD87EA91E69BBD8ABD8FEF87BB63
:0800A0007894FFCFF894FFCF24
:00000001FF
