:1000000012C019C018C017C016C015C014C013C044
:1000100012C011C010C00FC00EC00DC00CC00BC06C
:100020000AC009C008C011241FBECFE5D4E0DEBF5E
:10003000CDBF51D057C0E4CF803C22E1920749F1B7
:100040008CF4811522EC9207A1F124F481159649D4
:1000500051F131C0811521EE920739F18036994076
:10006000B1F029C0803428E39207B9F044F4803815
:1000700025E2920781F081159C42C9F01CC08115D0
:100080002BE4920761F08038904759F014C08FEC50
:1000900013C087E611C083E30FC082E20DC089E17F
:1000A0000BC080E109C08CE007C088E005C086E095
:1000B00003C083E001C080E010BC89B988E18AB93F
:1000C00086E880BD08955D9BFECF8CB908955F9B47
:1000D000FECF8CB1089580E895E2AEDFF8DF805264
:0800E000F2DFFCCFF894FFCF22
:00000001FF
