:100000001AC021C020C01FC01EC01DC01CC01BC004
:100010001AC019C018C017C016C015C014C013C02C
:1000200012C011C010C017C019C01BC01DC01FC016
:1000300021C023C025C011241FBECFE5D4E0DEBF00
:10004000CDBF71D07AC0DCCF88309105D8F4FC01E7
:10005000ED5EFF4F099480E487B914C081E487B94D
:1000600011C082E487B90EC083E487B90BC084E471
:1000700087B908C085E487B905C086E487B902C09E
:1000800087E487B9369A3699FECF84B195B1089541
:100090005D9BFECF8CB90895803C22E1920749F127
:1000A0008CF4811522EC9207A1F124F48115964974
:1000B00051F131C0811521EE920739F18036994016
:1000C000B1F029C0803428E39207B9F044F48038B5
:1000D00025E2920781F081159C42C9F01CC0811570
:1000E0002BE4920761F08038904759F014C08FECF0
:1000F00013C087E611C083E30FC082E20DC089E11F
:100100000BC080E109C08CE007C088E005C086E034
:1001100003C083E001C080E010BC89B988E18AB9DE
:1001200086E880BD089587E886B980E895E2B4DF67
:0E01300081E090E089DFACDFFBCFF894FFCFD9
:00000001FF
