:1000000012C019C018C017C016C015C014C013C044
:1000100012C011C010C00FC00EC00DC00CC00BC06C
:100020000AC009C008C011241FBECFE5D4E0DEBF5E
:10003000CDBF3DD098C1E4CFCF92DF92EF92FF9237
:100040006A017B0181309105B1F426B537B5ADEC7D
:10005000BCEC7DD1929582958F7089279F708927FE
:10006000BC0180E090E082D0A7019601E5D052D09B
:100070007BBD6ABD17C00297A9F426B537B5ADECB4
:10008000BCEC65D1929582958F7089279F708927E6
:10009000BC0180E090E06AD0A7019601CDD03AD0B3
:1000A00079BD68BDFF90EF90DF90CF90089587B342
:1000B000866087BB40E050E0BA0181E090E0BCDFA1
:1000C0002FEF89E698E1215080409040E1F700C091
:1000D000000040E050E060E271E481E090E0ACDFDD
:1000E0002FEF89E698E1215080409040E1F700C071
:1000F000000040E050E060EA71E481E090E09CDFC5
:100100002FEF89E698E1215080409040E1F700C050
:100110000000D0CF70D088F09F5790F0B92F99276A
:10012000B751A0F0D1F0660F771F881F991F1AF002
:10013000BA95C9F712C0B13081F077D0B1E0089517
:1001400074C0672F782F8827B85F39F0B93FCCF398
:10015000869577956795B395D9F73EF490958095F8
:10016000709561957F4F8F4F9F4F0895E89409C018
:1001700097FB3EF490958095709561957F4F8F4FDA
:100180009F4F9923A9F0F92F96E9BB279395F695F0
:10019000879577956795B795F111F8CFFAF4BB0F6E
:1001A00011F460FF1BC06F5F7F4F8F4F9F4F16C0D2
:1001B000882311F096E911C0772321F09EE8872F5C
:1001C000762F05C0662371F096E8862F70E060E018
:1001D0002AF09A95660F771F881FDAF7880F969591
:1001E000879597F9089557FD9058440F551F59F07A
:1001F0005F3F71F04795880F97FB991F61F09F3F14
:1002000079F087950895121613061406551FF2CF3C
:100210004695F1DF08C0161617061806991FF1CF8C
:1002200086957105610508940895E894BB276627B3
:100230007727CB0197F908950BD078C069D028F0C3
:100240006ED018F0952309F05AC05FC01124EECF8C
:10025000CADFA0F3959FD1F3950F50E0551F629F21
:10026000F001729FBB27F00DB11D639FAA27F00D0F
:10027000B11DAA1F649F6627B00DA11D661F829F36
:100280002227B00DA11D621F739FB00DA11D621F1B
:10029000839FA00D611D221F749F3327A00D611D38
:1002A000231F849F600D211D822F762F6A2F11241A
:1002B0009F5750408AF0E1F088234AF0EE0FFF1F6D
:1002C000BB1F661F771F881F91505040A9F79E3FA4
:1002D000510570F014C0AACF5F3FECF3983EDCF3F9
:1002E000869577956795B795F795E7959F5FC1F7E1
:1002F000FE2B880F911D9695879597F9089597F98C
:100300009F6780E870E060E008959FEF80EC0895BB
:1003100000240A94161617061806090608950024E4
:100320000A9412161306140605060895092E03945E
:10033000000C11F4882352F0BB0F40F4BF2B11F4D2
:1003400060FF04C06F5F7F4F8F4F9F4F0895A29F44
:10035000B001B39FC001A39F01D0B29F700D811D5A
:0A0360001124911D0895F894FFCFB9
:00000001FF
